{
  "_format": "hh-sol-artifact-1",
  "contractName": "Vault",
  "sourceName": "contracts/Vault.sol",
  "abi": [
    {
      "inputs": [],
      "stateMutability": "nonpayable",
      "type": "constructor"
    },
    {
      "anonymous": false,
      "inputs": [
        {
          "indexed": true,
          "internalType": "address",
          "name": "previousOwner",
          "type": "address"
        },
        {
          "indexed": true,
          "internalType": "address",
          "name": "newOwner",
          "type": "address"
        }
      ],
      "name": "OwnershipTransferred",
      "type": "event"
    },
    {
      "anonymous": false,
      "inputs": [
        {
          "indexed": true,
          "internalType": "bytes32",
          "name": "role",
          "type": "bytes32"
        },
        {
          "indexed": true,
          "internalType": "bytes32",
          "name": "previousAdminRole",
          "type": "bytes32"
        },
        {
          "indexed": true,
          "internalType": "bytes32",
          "name": "newAdminRole",
          "type": "bytes32"
        }
      ],
      "name": "RoleAdminChanged",
      "type": "event"
    },
    {
      "anonymous": false,
      "inputs": [
        {
          "indexed": true,
          "internalType": "bytes32",
          "name": "role",
          "type": "bytes32"
        },
        {
          "indexed": true,
          "internalType": "address",
          "name": "account",
          "type": "address"
        },
        {
          "indexed": true,
          "internalType": "address",
          "name": "sender",
          "type": "address"
        }
      ],
      "name": "RoleGranted",
      "type": "event"
    },
    {
      "anonymous": false,
      "inputs": [
        {
          "indexed": true,
          "internalType": "bytes32",
          "name": "role",
          "type": "bytes32"
        },
        {
          "indexed": true,
          "internalType": "address",
          "name": "account",
          "type": "address"
        },
        {
          "indexed": true,
          "internalType": "address",
          "name": "sender",
          "type": "address"
        }
      ],
      "name": "RoleRevoked",
      "type": "event"
    },
    {
      "inputs": [],
      "name": "DEFAULT_ADMIN_ROLE",
      "outputs": [
        {
          "internalType": "bytes32",
          "name": "",
          "type": "bytes32"
        }
      ],
      "stateMutability": "view",
      "type": "function"
    },
    {
      "inputs": [],
      "name": "WITHDRAWER_ROLE",
      "outputs": [
        {
          "internalType": "bytes32",
          "name": "",
          "type": "bytes32"
        }
      ],
      "stateMutability": "view",
      "type": "function"
    },
    {
      "inputs": [
        {
          "internalType": "uint256",
          "name": "_amount",
          "type": "uint256"
        }
      ],
      "name": "deposit",
      "outputs": [],
      "stateMutability": "nonpayable",
      "type": "function"
    },
    {
      "inputs": [
        {
          "internalType": "bytes32",
          "name": "role",
          "type": "bytes32"
        }
      ],
      "name": "getRoleAdmin",
      "outputs": [
        {
          "internalType": "bytes32",
          "name": "",
          "type": "bytes32"
        }
      ],
      "stateMutability": "view",
      "type": "function"
    },
    {
      "inputs": [
        {
          "internalType": "bytes32",
          "name": "role",
          "type": "bytes32"
        },
        {
          "internalType": "uint256",
          "name": "index",
          "type": "uint256"
        }
      ],
      "name": "getRoleMember",
      "outputs": [
        {
          "internalType": "address",
          "name": "",
          "type": "address"
        }
      ],
      "stateMutability": "view",
      "type": "function"
    },
    {
      "inputs": [
        {
          "internalType": "bytes32",
          "name": "role",
          "type": "bytes32"
        }
      ],
      "name": "getRoleMemberCount",
      "outputs": [
        {
          "internalType": "uint256",
          "name": "",
          "type": "uint256"
        }
      ],
      "stateMutability": "view",
      "type": "function"
    },
    {
      "inputs": [
        {
          "internalType": "bytes32",
          "name": "role",
          "type": "bytes32"
        },
        {
          "internalType": "address",
          "name": "account",
          "type": "address"
        }
      ],
      "name": "grantRole",
      "outputs": [],
      "stateMutability": "nonpayable",
      "type": "function"
    },
    {
      "inputs": [
        {
          "internalType": "bytes32",
          "name": "role",
          "type": "bytes32"
        },
        {
          "internalType": "address",
          "name": "account",
          "type": "address"
        }
      ],
      "name": "hasRole",
      "outputs": [
        {
          "internalType": "bool",
          "name": "",
          "type": "bool"
        }
      ],
      "stateMutability": "view",
      "type": "function"
    },
    {
      "inputs": [],
      "name": "maxWithdrawAmount",
      "outputs": [
        {
          "internalType": "uint256",
          "name": "",
          "type": "uint256"
        }
      ],
      "stateMutability": "view",
      "type": "function"
    },
    {
      "inputs": [],
      "name": "owner",
      "outputs": [
        {
          "internalType": "address",
          "name": "",
          "type": "address"
        }
      ],
      "stateMutability": "view",
      "type": "function"
    },
    {
      "inputs": [],
      "name": "renounceOwnership",
      "outputs": [],
      "stateMutability": "nonpayable",
      "type": "function"
    },
    {
      "inputs": [
        {
          "internalType": "bytes32",
          "name": "role",
          "type": "bytes32"
        },
        {
          "internalType": "address",
          "name": "account",
          "type": "address"
        }
      ],
      "name": "renounceRole",
      "outputs": [],
      "stateMutability": "nonpayable",
      "type": "function"
    },
    {
      "inputs": [
        {
          "internalType": "bytes32",
          "name": "role",
          "type": "bytes32"
        },
        {
          "internalType": "address",
          "name": "account",
          "type": "address"
        }
      ],
      "name": "revokeRole",
      "outputs": [],
      "stateMutability": "nonpayable",
      "type": "function"
    },
    {
      "inputs": [
        {
          "internalType": "uint256",
          "name": "_maxAmount",
          "type": "uint256"
        }
      ],
      "name": "setMaxWithdrawAmount",
      "outputs": [],
      "stateMutability": "nonpayable",
      "type": "function"
    },
    {
      "inputs": [
        {
          "internalType": "contract IERC20",
          "name": "_token",
          "type": "address"
        }
      ],
      "name": "setToken",
      "outputs": [],
      "stateMutability": "nonpayable",
      "type": "function"
    },
    {
      "inputs": [
        {
          "internalType": "bool",
          "name": "_isEnable",
          "type": "bool"
        }
      ],
      "name": "setWithdrawEnable",
      "outputs": [],
      "stateMutability": "nonpayable",
      "type": "function"
    },
    {
      "inputs": [
        {
          "internalType": "address",
          "name": "newOwner",
          "type": "address"
        }
      ],
      "name": "transferOwnership",
      "outputs": [],
      "stateMutability": "nonpayable",
      "type": "function"
    },
    {
      "inputs": [
        {
          "internalType": "uint256",
          "name": "_amount",
          "type": "uint256"
        },
        {
          "internalType": "address",
          "name": "_to",
          "type": "address"
        }
      ],
      "name": "withdraw",
      "outputs": [],
      "stateMutability": "nonpayable",
      "type": "function"
    },
    {
      "inputs": [],
      "name": "withdrawEnable",
      "outputs": [
        {
          "internalType": "bool",
          "name": "",
          "type": "bool"
        }
      ],
      "stateMutability": "view",
      "type": "function"
    }
  ],
  "bytecode": "0x60806040523480156200001157600080fd5b50600062000024620000ec60201b60201c565b9050806000806101000a81548173ffffffffffffffffffffffffffffffffffffffff021916908373ffffffffffffffffffffffffffffffffffffffff1602179055508073ffffffffffffffffffffffffffffffffffffffff16600073ffffffffffffffffffffffffffffffffffffffff167f8be0079c531659141344cd1fd0a4f28419497f9722a3daafe3b4186f6b6457e060405160405180910390a350620000e66000801b620000da620000ec60201b60201c565b620000f460201b60201c565b62000283565b600033905090565b6200010682826200010a60201b60201c565b5050565b620001398160016000858152602001908152602001600020600001620001ae60201b620015311790919060201c565b15620001aa576200014f620000ec60201b60201c565b73ffffffffffffffffffffffffffffffffffffffff168173ffffffffffffffffffffffffffffffffffffffff16837f2f8788117e7eff1d82e926ec794901d17c78024a50270940304540a733656f0d60405160405180910390a45b5050565b6000620001de836000018373ffffffffffffffffffffffffffffffffffffffff1660001b620001e660201b60201c565b905092915050565b6000620001fa83836200026060201b60201c565b620002555782600001829080600181540180825580915050600190039060005260206000200160009091909190915055826000018054905083600101600084815260200190815260200160002081905550600190506200025a565b600090505b92915050565b600080836001016000848152602001908152602001600020541415905092915050565b611c8b80620002936000396000f3fe608060405234801561001057600080fd5b50600436106101205760003560e01c80639010d07c116100ad578063ca15c87311610071578063ca15c87314610483578063d547741f146104c5578063df74e02814610513578063f2fde38b14610541578063f516440c1461058557610120565b80639010d07c1461033757806391d14854146103af578063a217fddf14610415578063b5b68afe14610433578063b6b55f251461045557610120565b806336568abe116100f457806336568abe14610247578063715018a614610295578063827a560b1461029f57806385f438c1146102cf5780638da5cb5b146102ed57610120565b8062f714ce14610125578063144fa6d714610173578063248a9ca3146101b75780632f2ff15d146101f9575b600080fd5b6101716004803603604081101561013b57600080fd5b8101908080359060200190929190803573ffffffffffffffffffffffffffffffffffffffff1690602001909291905050506105a3565b005b6101b56004803603602081101561018957600080fd5b81019080803573ffffffffffffffffffffffffffffffffffffffff169060200190929190505050610882565b005b6101e3600480360360208110156101cd57600080fd5b8101908080359060200190929190505050610975565b6040518082815260200191505060405180910390f35b6102456004803603604081101561020f57600080fd5b8101908080359060200190929190803573ffffffffffffffffffffffffffffffffffffffff169060200190929190505050610995565b005b6102936004803603604081101561025d57600080fd5b8101908080359060200190929190803573ffffffffffffffffffffffffffffffffffffffff169060200190929190505050610a1f565b005b61029d610ab8565b005b6102cd600480360360208110156102b557600080fd5b81019080803515159060200190929190505050610c26565b005b6102d7610cf2565b6040518082815260200191505060405180910390f35b6102f5610d2b565b604051808273ffffffffffffffffffffffffffffffffffffffff1673ffffffffffffffffffffffffffffffffffffffff16815260200191505060405180910390f35b61036d6004803603604081101561034d57600080fd5b810190808035906020019092919080359060200190929190505050610d54565b604051808273ffffffffffffffffffffffffffffffffffffffff1673ffffffffffffffffffffffffffffffffffffffff16815260200191505060405180910390f35b6103fb600480360360408110156103c557600080fd5b8101908080359060200190929190803573ffffffffffffffffffffffffffffffffffffffff169060200190929190505050610d86565b604051808215151515815260200191505060405180910390f35b61041d610db8565b6040518082815260200191505060405180910390f35b61043b610dbf565b604051808215151515815260200191505060405180910390f35b6104816004803603602081101561046b57600080fd5b8101908080359060200190929190505050610dd2565b005b6104af6004803603602081101561049957600080fd5b8101908080359060200190929190505050610f52565b6040518082815260200191505060405180910390f35b610511600480360360408110156104db57600080fd5b8101908080359060200190929190803573ffffffffffffffffffffffffffffffffffffffff169060200190929190505050610f79565b005b61053f6004803603602081101561052957600080fd5b8101908080359060200190929190505050611003565b005b6105836004803603602081101561055757600080fd5b81019080803573ffffffffffffffffffffffffffffffffffffffff1690602001909291905050506110bc565b005b61058d6112af565b6040518082815260200191505060405180910390f35b6105ab6112b5565b73ffffffffffffffffffffffffffffffffffffffff166105c9610d2b565b73ffffffffffffffffffffffffffffffffffffffff16148061062d575061062c60405180807f574954484452415745525f524f4c450000000000000000000000000000000000815250600f01905060405180910390206106276112b5565b610d86565b5b61069f576040517f08c379a000000000000000000000000000000000000000000000000000000000815260040180806020018281038252601a8152602001807f43616c6c6572206973206e6f742061207769746864726177657200000000000081525060200191505060405180910390fd5b600460009054906101000a900460ff16610721576040517f08c379a00000000000000000000000000000000000000000000000000000000081526004018080602001828103825260198152602001807f5769746864726177206973206e6f7420617661696c61626c650000000000000081525060200191505060405180910390fd5b600354821115610799576040517f08c379a00000000000000000000000000000000000000000000000000000000081526004018080602001828103825260158152602001807f457863656564206d6178696d756d20616d6f756e74000000000000000000000081525060200191505060405180910390fd5b600260009054906101000a900473ffffffffffffffffffffffffffffffffffffffff1673ffffffffffffffffffffffffffffffffffffffff1663a9059cbb82846040518363ffffffff1660e01b8152600401808373ffffffffffffffffffffffffffffffffffffffff1673ffffffffffffffffffffffffffffffffffffffff16815260200182815260200192505050602060405180830381600087803b15801561084257600080fd5b505af1158015610856573d6000803e3d6000fd5b505050506040513d602081101561086c57600080fd5b8101908080519060200190929190505050505050565b61088a6112b5565b73ffffffffffffffffffffffffffffffffffffffff166108a8610d2b565b73ffffffffffffffffffffffffffffffffffffffff1614610931576040517f08c379a00000000000000000000000000000000000000000000000000000000081526004018080602001828103825260208152602001807f4f776e61626c653a2063616c6c6572206973206e6f7420746865206f776e657281525060200191505060405180910390fd5b80600260006101000a81548173ffffffffffffffffffffffffffffffffffffffff021916908373ffffffffffffffffffffffffffffffffffffffff16021790555050565b600060016000838152602001908152602001600020600201549050919050565b6109bc60016000848152602001908152602001600020600201546109b76112b5565b610d86565b610a11576040517f08c379a000000000000000000000000000000000000000000000000000000000815260040180806020018281038252602f815260200180611b52602f913960400191505060405180910390fd5b610a1b82826112bd565b5050565b610a276112b5565b73ffffffffffffffffffffffffffffffffffffffff168173ffffffffffffffffffffffffffffffffffffffff1614610aaa576040517f08c379a000000000000000000000000000000000000000000000000000000000815260040180806020018281038252602f815260200180611c27602f913960400191505060405180910390fd5b610ab48282611351565b5050565b610ac06112b5565b73ffffffffffffffffffffffffffffffffffffffff16610ade610d2b565b73ffffffffffffffffffffffffffffffffffffffff1614610b67576040517f08c379a00000000000000000000000000000000000000000000000000000000081526004018080602001828103825260208152602001807f4f776e61626c653a2063616c6c6572206973206e6f7420746865206f776e657281525060200191505060405180910390fd5b600073ffffffffffffffffffffffffffffffffffffffff166000809054906101000a900473ffffffffffffffffffffffffffffffffffffffff1673ffffffffffffffffffffffffffffffffffffffff167f8be0079c531659141344cd1fd0a4f28419497f9722a3daafe3b4186f6b6457e060405160405180910390a360008060006101000a81548173ffffffffffffffffffffffffffffffffffffffff021916908373ffffffffffffffffffffffffffffffffffffffff160217905550565b610c2e6112b5565b73ffffffffffffffffffffffffffffffffffffffff16610c4c610d2b565b73ffffffffffffffffffffffffffffffffffffffff1614610cd5576040517f08c379a00000000000000000000000000000000000000000000000000000000081526004018080602001828103825260208152602001807f4f776e61626c653a2063616c6c6572206973206e6f7420746865206f776e657281525060200191505060405180910390fd5b80600460006101000a81548160ff02191690831515021790555050565b60405180807f574954484452415745525f524f4c450000000000000000000000000000000000815250600f019050604051809103902081565b60008060009054906101000a900473ffffffffffffffffffffffffffffffffffffffff16905090565b6000610d7e82600160008681526020019081526020016000206000016113e590919063ffffffff16565b905092915050565b6000610db082600160008681526020019081526020016000206000016113ff90919063ffffffff16565b905092915050565b6000801b81565b600460009054906101000a900460ff1681565b80600260009054906101000a900473ffffffffffffffffffffffffffffffffffffffff1673ffffffffffffffffffffffffffffffffffffffff166370a08231336040518263ffffffff1660e01b8152600401808273ffffffffffffffffffffffffffffffffffffffff1673ffffffffffffffffffffffffffffffffffffffff16815260200191505060206040518083038186803b158015610e7257600080fd5b505afa158015610e86573d6000803e3d6000fd5b505050506040513d6020811015610e9c57600080fd5b81019080805190602001909291905050501015610f21576040517f08c379a000000000000000000000000000000000000000000000000000000000815260040180806020018281038252601c8152602001807f496e73756666696369656e74206163636f756e742062616c616e63650000000081525060200191505060405180910390fd5b610f4f600260009054906101000a900473ffffffffffffffffffffffffffffffffffffffff1633308461142f565b50565b6000610f726001600084815260200190815260200160002060000161151c565b9050919050565b610fa06001600084815260200190815260200160002060020154610f9b6112b5565b610d86565b610ff5576040517f08c379a0000000000000000000000000000000000000000000000000000000008152600401808060200182810382526030815260200180611bcd6030913960400191505060405180910390fd5b610fff8282611351565b5050565b61100b6112b5565b73ffffffffffffffffffffffffffffffffffffffff16611029610d2b565b73ffffffffffffffffffffffffffffffffffffffff16146110b2576040517f08c379a00000000000000000000000000000000000000000000000000000000081526004018080602001828103825260208152602001807f4f776e61626c653a2063616c6c6572206973206e6f7420746865206f776e657281525060200191505060405180910390fd5b8060038190555050565b6110c46112b5565b73ffffffffffffffffffffffffffffffffffffffff166110e2610d2b565b73ffffffffffffffffffffffffffffffffffffffff161461116b576040517f08c379a00000000000000000000000000000000000000000000000000000000081526004018080602001828103825260208152602001807f4f776e61626c653a2063616c6c6572206973206e6f7420746865206f776e657281525060200191505060405180910390fd5b600073ffffffffffffffffffffffffffffffffffffffff168173ffffffffffffffffffffffffffffffffffffffff1614156111f1576040517f08c379a0000000000000000000000000000000000000000000000000000000008152600401808060200182810382526026815260200180611b816026913960400191505060405180910390fd5b8073ffffffffffffffffffffffffffffffffffffffff166000809054906101000a900473ffffffffffffffffffffffffffffffffffffffff1673ffffffffffffffffffffffffffffffffffffffff167f8be0079c531659141344cd1fd0a4f28419497f9722a3daafe3b4186f6b6457e060405160405180910390a3806000806101000a81548173ffffffffffffffffffffffffffffffffffffffff021916908373ffffffffffffffffffffffffffffffffffffffff16021790555050565b60035481565b600033905090565b6112e5816001600085815260200190815260200160002060000161153190919063ffffffff16565b1561134d576112f26112b5565b73ffffffffffffffffffffffffffffffffffffffff168173ffffffffffffffffffffffffffffffffffffffff16837f2f8788117e7eff1d82e926ec794901d17c78024a50270940304540a733656f0d60405160405180910390a45b5050565b611379816001600085815260200190815260200160002060000161156190919063ffffffff16565b156113e1576113866112b5565b73ffffffffffffffffffffffffffffffffffffffff168173ffffffffffffffffffffffffffffffffffffffff16837ff6391f5c32d9c69d2a47ea670b442974b53935d1edc7fd64eb21e047a839171b60405160405180910390a45b5050565b60006113f48360000183611591565b60001c905092915050565b6000611427836000018373ffffffffffffffffffffffffffffffffffffffff1660001b611614565b905092915050565b611516846323b872dd60e01b858585604051602401808473ffffffffffffffffffffffffffffffffffffffff1673ffffffffffffffffffffffffffffffffffffffff1681526020018373ffffffffffffffffffffffffffffffffffffffff1673ffffffffffffffffffffffffffffffffffffffff1681526020018281526020019350505050604051602081830303815290604052907bffffffffffffffffffffffffffffffffffffffffffffffffffffffff19166020820180517bffffffffffffffffffffffffffffffffffffffffffffffffffffffff8381831617835250505050611637565b50505050565b600061152a82600001611726565b9050919050565b6000611559836000018373ffffffffffffffffffffffffffffffffffffffff1660001b611737565b905092915050565b6000611589836000018373ffffffffffffffffffffffffffffffffffffffff1660001b6117a7565b905092915050565b6000818360000180549050116115f2576040517f08c379a0000000000000000000000000000000000000000000000000000000008152600401808060200182810382526022815260200180611b306022913960400191505060405180910390fd5b82600001828154811061160157fe5b9060005260206000200154905092915050565b600080836001016000848152602001908152602001600020541415905092915050565b6060611699826040518060400160405280602081526020017f5361666545524332303a206c6f772d6c6576656c2063616c6c206661696c65648152508573ffffffffffffffffffffffffffffffffffffffff1661188f9092919063ffffffff16565b9050600081511115611721578080602001905160208110156116ba57600080fd5b8101908080519060200190929190505050611720576040517f08c379a000000000000000000000000000000000000000000000000000000000815260040180806020018281038252602a815260200180611bfd602a913960400191505060405180910390fd5b5b505050565b600081600001805490509050919050565b60006117438383611614565b61179c5782600001829080600181540180825580915050600190039060005260206000200160009091909190915055826000018054905083600101600084815260200190815260200160002081905550600190506117a1565b600090505b92915050565b6000808360010160008481526020019081526020016000205490506000811461188357600060018203905060006001866000018054905003905060008660000182815481106117f257fe5b906000526020600020015490508087600001848154811061180f57fe5b906000526020600020018190555060018301876001016000838152602001908152602001600020819055508660000180548061184757fe5b60019003818190600052602060002001600090559055866001016000878152602001908152602001600020600090556001945050505050611889565b60009150505b92915050565b606061189e84846000856118a7565b90509392505050565b606082471015611902576040517f08c379a0000000000000000000000000000000000000000000000000000000008152600401808060200182810382526026815260200180611ba76026913960400191505060405180910390fd5b61190b85611a50565b61197d576040517f08c379a000000000000000000000000000000000000000000000000000000000815260040180806020018281038252601d8152602001807f416464726573733a2063616c6c20746f206e6f6e2d636f6e747261637400000081525060200191505060405180910390fd5b600060608673ffffffffffffffffffffffffffffffffffffffff1685876040518082805190602001908083835b602083106119cd57805182526020820191506020810190506020830392506119aa565b6001836020036101000a03801982511681845116808217855250505050505090500191505060006040518083038185875af1925050503d8060008114611a2f576040519150601f19603f3d011682016040523d82523d6000602084013e611a34565b606091505b5091509150611a44828286611a63565b92505050949350505050565b600080823b905060008111915050919050565b60608315611a7357829050611b28565b600083511115611a865782518084602001fd5b816040517f08c379a00000000000000000000000000000000000000000000000000000000081526004018080602001828103825283818151815260200191508051906020019080838360005b83811015611aed578082015181840152602081019050611ad2565b50505050905090810190601f168015611b1a5780820380516001836020036101000a031916815260200191505b509250505060405180910390fd5b939250505056fe456e756d657261626c655365743a20696e646578206f7574206f6620626f756e6473416363657373436f6e74726f6c3a2073656e646572206d75737420626520616e2061646d696e20746f206772616e744f776e61626c653a206e6577206f776e657220697320746865207a65726f2061646472657373416464726573733a20696e73756666696369656e742062616c616e636520666f722063616c6c416363657373436f6e74726f6c3a2073656e646572206d75737420626520616e2061646d696e20746f207265766f6b655361666545524332303a204552433230206f7065726174696f6e20646964206e6f742073756363656564416363657373436f6e74726f6c3a2063616e206f6e6c792072656e6f756e636520726f6c657320666f722073656c66a264697066735822122099e4d6659b79e5e4c053f631dd02c0414953c4273b94e5ef60d5bd08c2e3e3cc64736f6c63430006020033",
  "linkReferences": {},
  "deployedLinkReferences": {}
}